:1000000064C0000097C000007BC0000079C0000001
:1000100077C0000075C0000073C0000071C0000010
:100020006FC000006DC000006BC0000033C2000054
:1000300067C0000065C0000063C0000061C0000030
:100040005FC000005DC000005BC0000059C0000040
:1000500057C0000055C0000053C0000051C0000050
:100060004FC000004DC000000403090420036300DA
:1000700068006100660061006C006C006100640053
:10008000610073002E0063006F006D0012035600C4
:10009000550053006900420069006E006F001201B4
:1000A0001001FF000008C016DC0500010102030179
:1000B000090219000101008032090400000100005A
:1000C00000000705810308000A0011241FBECFEFBE
:1000D000D4E0DEBFCDBF11E0A0E0B1E0EEEDF8E08E
:1000E00002C005900D92A432B107D9F711E0A4E245
:1000F000B1E001C01D92A537B107E1F719D2EDC3F8
:100100007FCFA82FB92F80E090E041E050EA6095C2
:1001100030E009C02D9182279795879510F08427AC
:100120009527305EC8F36F5FA8F30895EADF8D93DB
:100130009D930895CF93CFB7CF93DF93C3954F9BF4
:10014000E9F74F9B0BC04F9B09C04F9B07C04F9BCC
:1001500005C04F9B03C04F9B01C08BC06F93C091E4
:100160005801DD27C15ADE4F2F9365E54F9B03C031
:100170002F916F91E6CF0F931F934F9320E040E1B3
:100180005F9309B1047807FB27F93F9350E03BE008
:1001900039C0147840642F77012F5F5F1EC040681C
:1001A00019B114782F7752501FC0406409B12F77CE
:1001B0000478D1F15F5F00C023C0406219B12F778E
:1001C000147891F15F5F00C025C00478102751506A
:1001D00012F45D5F0000115027952C3F19B1C8F64D
:1001E00014780127015027952C3FC8F642274993E0
:1001F00009B1047810274F73115027952C3FA8F6AA
:100200004695469519B1147879F001270150279544
:100210002C3F98F66B5A60F3315009B1B0F600C02C
:1002200011E01CBB002719C03B503195C31BD040C7
:1002300011E01CBB0881033C09F10B34F9F020915B
:1002400056011981110F1213EDCF4A81441F09364F
:1002500051F10D3211F0013E29F700935D013F91FC
:100260005F914F911F910F912F916F91CCB3C0FD72
:1002700065CFDF91CF91CFBFCF91189520915D01D0
:10028000222369F310915B01112391F5343092F12F
:1002900030935B0120935701109158013BE0311BD3
:1002A0003093580127C000915B0101300CF50AE53D
:1002B0004F7049F43091220134FD1DC0009322019A
:1002C000CFE3D1E01CC030914A0134FD14C000934B
:1002D0004A01CBE4D1E013C0052710E000C00000C4
:1002E0000BB91AC0052710E0221F1DC010E021C065
:1002F0004AE502C032ED432FC4E1D0E032E01AB14A
:1003000014685F9A0BB11AB954E820E865E320FF3E
:1003100005270BB9279517951C3FF0F66695B8F79A
:10032000B1F720FF05270BB9279517951C3FD0F68D
:100330002795179517FF052700001C3F0BB9B0F64E
:1003400029913A9519F70B7710915C01110FC6515D
:10035000D0400BB911F01093560111E01CBB00689E
:100360001AB11B77402F4B7754E05A95F1F70BB930
:100370001AB94BB974CFFC0110925A01109259016D
:100380008381833059F48281833041F480E391E0AA
:1003900090935A01809359018EE0089580E008956A
:1003A000FC0110922D0110922C018181823031F1DB
:1003B000833028F4882351F08130A1F415C08430B3
:1003C00049F18430A8F1853069F42CC080912A016C
:1003D00090912B018D7F907090932B0180932A0137
:1003E000259A2D9A80E0089580912A0190912B0101
:1003F000826090932B0180932A01F4CF80912A018F
:1004000090912B018D7F907090932B0180932A0106
:100410002D98E8CF82E191E090935A0180935901A1
:1004200080E1089589E090E090932D0180932C0164
:10043000868180932F0110922E01813110F48FEF6D
:10044000089580E180932F018FEF089550912F013F
:1004500040912E01DC0130E012C080912C0190917E
:100460002D01E42FF0E02C91099719F4EE5FFE4F77
:1004700002C0EE5EFE4F20833F5F4F5F119645172F
:1004800010F4361750F340932E0180E0451709F41D
:1004900081E008951F920F920FB60F9211242F93AF
:1004A0003F938F939F93809126019091270101960E
:1004B0009093270180932601809128019091290132
:1004C00001969093290180932801809124019091B5
:1004D00025010196909325018093240180912A01A2
:1004E00090912B0181FF1BC08091260190912701E3
:1004F00085369105A4F085B190E2892785B9809170
:100500002A0190912B0121E030E0822793279093DC
:100510002B0180932A0110922701109226019F91AE
:100520008F913F912F910F900FBE0F901F901895B4
:100530006F927F928F929F92AF92BF92CF92DF92F3
:10054000EF92FF920F931F93CF93DF938EE093E090
:100550009093310180933001E2E3F1E08091020158
:100560008093320110923301809103018093340112
:1005700013828091040180933601158280910501D8
:100580008093380117828091060180933A01118689
:100590008091070180933C01138684B18B6284B9FA
:1005A0008AB188668AB980918100886080938100D1
:1005B00080916F00826080936F002EE088E190E070
:1005C0000FB6F894A895809360000FBE209360004A
:1005D00065D0579A20E040E45FE1A895CA010197F1
:1005E000F1F72F5F2A3FC9F7579878948EE390E090
:1005F000909389008093880080918100846080932B
:1006000081004EE0642E43E0742EC2E3D1E032E07C
:10061000832E912C8C0E9D1E24E0A22EB12CAC0EAC
:10062000BD1E96E0C92ED12CCC0EDD1E88E0E82E32
:10063000F12CEC0EFD1E8E01065F1F4FA8953BD0DE
:1006400080912C0190912D010997C1F77092310191
:100650006092300180910201809332011982809171
:10066000030180933401F40111828091040180938D
:100670003601F50111828091050180933801F60160
:1006800011828091060180933A01F70111828091D5
:10069000070180933C01F8011182D0CFE9E6F0E038
:1006A000808182608083E89A8BE480934B018AE5A5
:1006B00080934A0108951F93CF93DF9360915B016C
:1006C000635067FDB3C080915801CCE0D0E0C81BF7
:1006D000D109C15ADE4F809157018D3209F094C083
:1006E000683009F0A1C083EC80933F018AE58093D4
:1006F000220110923E018881807621F0CE0150DEE9
:10070000282F6FC09A81109248018981882321F493
:100710001092490122E05EC0853019F490935C018B
:1007200058C0863009F041C08B81813019F48EE9C0
:1007300090E028C0823049F480EB90E090935A0119
:100740008093590180E429E12DC0833049F58A81E5
:10075000882349F488E690E090935A0180935901E8
:1007600080E424E01FC0813049F48CE690E090934F
:100770005A018093590180E420E214C0823049F488
:100780008CE890E090935A018093590180E422E133
:1007900009C0833029F4CE01EEDD282F80E002C0AD
:1007A00080E420E080933E011CC0883021F421E0E9
:1007B0008EE591E011C0893019F490935E0109C073
:1007C0008A3011F421E006C08B3019F48BE4809359
:1007D0004B0120E088E491E090935A018093590105
:1007E00009C02F3F39F4888187FD2E8180E88093EE
:1007F0003E0106C08F81882319F48E81821708F08C
:10080000822F8093230110C080913E0187FF0CC08E
:10081000CE011CDE8F3F21F48EE18093220104C0C3
:10082000882311F01092230110925B018091220124
:1008300084FF45C0809123018F3F09F440C0182FE9
:10084000893008F018E0811B8093230180913F01DB
:1008500098E8892780933F01112321F120915901C4
:1008600030915A0180913E0186FF0AC0912FF90113
:10087000A0E4B1E084918D9331969150D9F708C0EE
:10088000912FD901E0E4F1E08D9181939150E1F74E
:10089000C90101961150810F911D1F5F90935A015C
:1008A0008093590180E491E0612F40DC612F6C5FFF
:1008B0006C3019F08FEF809323016093220194E153
:1008C00089B1847831F49150D9F710925C0110927B
:0E08D0005601DF91CF911F910895F894FFCF4C
:1008DE000A0044454D303031000000000000000099
:1008EE00000048656C6C6F2C2055534221000000AF
:0408FE0000005AFF9D
:00000001FF
